S0190000626C7565746F6F74685F63676D5F696164632E7333377F
S214006000C00A0020D1A40000CDA40000CDA400004A
S21400601025E40000CDA40000CDA40000CDA400001F
S214006020CDA40000CDA40000CDA40000CDA40000A7
S214006030CDA400008C850300598E0000CDA400007E
S214006040CDA40000CDA40000CDA40000CDA4000087
S214006050CDA40000CDA40000CDA40000CDA4000077
S214006060CDA40000CDA40000CDA40000CDA4000067
S21400607001F90000CDA40000CDA400008990000026
S2140060807D900000CDA40000CDA40000CDA40000AB
S214006090CDA40000CDA40000CDA40000CDA4000037
S2140060A0CDA4000075A9000029A90000CDA4000019
S2140060B0CDA4000059380300CDA40000A941030078
S2140060C0614103005D410300213A0300A54103003E
S2140060D0654103007D41030069410300014203005E
S2140060E0191D0300E11E0300E9410300CDA40000D2
S2140060F085DA0000CDA40000CDA40000CDA40000E9
S214006100099A0000CDA40000CDA40000CDA4000094
S214006110CDA40000CDA40000CDA40000CDA40000B6
S214006120CDA40000CDA40000CDA40000CDA40000A6
S214006130CDA40000CDA40000CDA40000CDA4000096
S21400614010B5054C237833B9044B13B1044800E06E
S21400615000BF0123237010BD78120020000000004D
S21400616044E4030008B5034B1BB10349034800E0B1
S21400617000BF08BD000000007C12002044E40300BD
S214006180A3F5803A704700BF174B002B08BF134B90
S2140061909D46FFF7F5FF00218B460F461348144A2D
S2140061A0121A2EF0E4FF0E4B002B00D098470D4B32
S2140061B0002B00D098470020002104000D000D4859
S2140061C0002802D00C4800E000BF2EF065FF20003B
S2140061D0290002F035FE2EF04BFF00BF000008003D
S2140061E00000000000000000C00A00207812002016
S2140061F0604D0020000000000000000000000000CD
S2140062002DE9F04F7E4D83B004F012F904F012F938
S2140062107C49286807F092FC04F00AF904F00AF9B1
S2140062207949286807F08AFC03F0D0FE04F000F9EC
S21400623004F000F97549286807F080FC04F0F8F8C7
S21400624004F0F8F87249286807F078FC04F0F0F8D3
S21400625004F0F0F86F49286807F070FC03F06AFA5B
S214006260B7EE000ADFF8F4816B4E88ED000A03F003
S2140062700DFA0A2003F0CCFE04F0DAF804F0DAF89F
S21400628066492868344606F1500707F057FC03F0C5
S21400629085F803F05BF802F0FBFFA4EC020BA742C4
S2140062A0F9D104F0C5F804F0C5F85D49286807F090
S2140062B045FC03F00BF85B4B5B4C83ED000B04F0E6
S2140062C0B7F804F0B7F85949286807F037FC03F028
S2140062D0D3FE574B574F83ED000A04F0A9F804F09D
S2140062E0A9F85549286807F029FC03F0F9FC206056
S2140062F004F09EF804F09EF85049286807F01EFC4B
S21400630003F016FC206803F0CDFB98ED000A03F0BE
S214006310BDF9002200234A49C7E90023C1E900234A
S21400632031A3D3E900234749C1E9002303F0C8FBA2
S214006330D7E9002355EC104B10EE100A2946A6ECC0
S214006340020B2EF011F83F4BCDE90001D3E900AB6C
S214006350C7E9000152465B46204629462EF02CFC33
S214006360374AD2E9008920B1A246AB46354BC3E98D
S214006370004542464B46204629462EF03BFC20B1BF
S214006380A046A9462E4BC3E900452F4BB342CDD1BC
S2140063900022DDE900012D4B2EF09CF900222C4B4B
S2140063A02EF098F95246C7E900015B46404649463A
S2140063B02DF0D8FF0022264B2EF08CF90CA3D3E943
S2140063C000232EF0B1FA234B0246C3E900010B4628
S2140063D009A1D1E900012EF0A7FA2EF03DFC1E4CD3
S2140063E0206003B0BDE8F08F295C8FC2F528F43F2B
S2140063F06666666666661A40000000000088A3406F
S2140064002C34002058840300608403006C8403004E
S214006410808403009084030008140020AC840300EA
S214006420C4840300B8120020C0120020E4840300D5
S214006430C41200209812002004850300188503006B
S214006440A0120020C00A0020083400200000503FA0
S21400645000408F40A8120020B0120020C812002072
S214006460704700BF0368404A23F47F4323F00703C6
S214006470934200D0704730B589B00DF10F0104A8E3
S2140064801EF092FA044640BB4FF0FF0CFE259DF826
S21400649015209DF814308DF818208DF819309DF8C9
S2140064A013209DF812308DF81A208DF81D309DF8B7
S2140064B011209DF8103001468DF81E208DF81F30F3
S2140064C00822332006AB8DF81BC08DF81C501EF03A
S2140064D073F8044620BB09B030BD244D2449286813
S2140064E007F02CFB2349286807F028FB03F0A0FFE1
S2140064F003F0A0FF2048BE230090204A20492868C9
S21400650007F01CFB1F4923461F4A286807F016FBA6
S214006510204603F0BBFF1D49286807F00FFBFEE787
S214006520124D1349286807F009FB1249286807F03E
S21400653005FB03F07DFF03F07DFF0F48CE230090A0
S2140065400E4A0F49286807F0F9FA0E4923460E4A04
S214006550286807F0F3FA204603F098FF0B492868EE
S21400656007F0ECFAFEE700BFA00001002C34002084
S2140065708C8403002C8503007C850300348503008F
S21400658040850300508503004C85030068850300A2
S21400659010B5044600223E2100791EF07FF804F173
S2140065A00B002EF059FD51EC100B2EF075FBBDE8DC
S2140065B0104000EE100A03F069B800BF2DE9F04362
S2140065C02DED028B89B0077903F016F8DFED2D7AF2
S2140065D020EE270ABCEEC08AB8EE487A30EE470AAC
S2140065E020EE270AFCEEC07A17EE904A00254FF000
S2140065F02E08254EDFF89C9003F01AFF03F01AFFD2
S21400660018EE102A23462149306807F097FA18EE4C
S214006610103A4A460A2103A8CDE90385CDE9055577
S21400662007952EF035FF2346C4B20DF10C0C601C06
S21400663060440DF1200CA4440CF8148C4A460A2140
S2140066402EF026FF45F26D6254FA80F4631C03A90F
S214006650CA5203F0EDFE03F0EDFE03AA30680C49C3
S21400666007F06CFA0DF10A03019303AB00932A4678
S21400667038463E21E31C1DF0D5FF09B0BDEC028B69
S214006680BDE8F08300007A442C340020CC8503005B
S214006690EC850300E88503002DE9F04F89B0077903
S2140066A003F00EFA002251EC100B2A4B2EF012F8D3
S2140066B0894680462EF0D0FA04462DF091FF024619
S2140066C00B46404649462DF04DFE0022214B2EF04B
S2140066D001F82EF0C1FA804600254FF02E0A03F08E
S2140066E0A7FE03F0A7FE1C4BDFF874B003AE2246ED
S2140066F018681A49434607F021FA23465A460A21E3
S2140067003046CDE903A5CDE9055507952EF0C0FE28
S2140067100DF1200CC4B2A444601C43465A460CF843
S21400672014AC0A2130442EF0B3FE03462A4645F246
S2140067306D6554FA83F30DF10A015C1C0191009615
S21400674038463A21355303331DF06CFF09B0BDE8D7
S214006750F08F00BF00408F402C340020F0850300EF
S214006760E88503002DE9F04F89B0077902F090FD27
S214006770002251EC100B2F4B2DF0ACFF89468046C3
S2140067802EF06AFA83462DF02BFF02460B46404653
S21400679049462DF0E7FD0022264B2DF09BFF2EF0FC
S2140067A05BFA804600244FF02E0A234E234D03F05A
S2140067B03FFE03F03FFE5A4643462149306807F045
S2140067C0BDF95B462A460A2103A8CDE903A4CDE914
S2140067D0054407942EF05CFE2A46C5B20DF10C0C5B
S2140067E0681C60440DF1200CAC440CF814AC434615
S2140067F00A212EF04DFE45F26D6255FA80F56B1CAF
S21400680003A9CA5203F014FE03F014FE03AA30686C
S2140068100C4907F093F90DF10A03019303AB0093BB
S214006820224638463C21EB1C1DF0FCFE09B0BDE8B4
S214006830F08F00BF00408F402C340020E885030016
S21400684000860300EC8503002DE9F04F89B090F830
S21400685004A003F011FCDFED2F7A20EE277AFCEE81
S214006860C07A4FF47A7317EE905A03FB05F307EEDF
S214006870903AF8EE677A77EE677AFCEEE77A17EEEC
S214006880904A00264FF02E09DFF89480DFF894B087
S21400689003F0CEFD03AF03F0CDFD2A4623461E4986
S2140068A0D8F8000007F04AF92B465A460A2138461F
S2140068B0CDE90396CDE9056607962EF0E9FD08AD0D
S2140068C02346C4B22544601C0A215A46384405F8BB
S2140068D0149C2EF0DDFD432254FA80F408AB2344CA
S2140068E003F8132C03F0A4FD03F0A4FD3A46D8F8F1
S2140068F000000A4907F022F90DF10A030193324617
S214006900504640210097A31C1DF08CFE09B0BDE840
S214006910F08F00BF00007A4418860300EC85030061
S2140069202C340020E8850300FFF78EBF2DE9F04FDA
S2140069302F4B89B0D3E900890779494640462EF0A7
S2140069408BF983462DF04CFE02460B4640464946E0
S2140069502DF008FD0022274B2DF0BCFE2EF07CF912
S214006960804600244FF02E0A234E244D03F060FD8F
S21400697003F060FD5A4643462149306807F0DEF8CA
S2140069805B462A460A2103A8CDE903A4CDE90544BF
S21400699007942EF07DFD2A46C5B20DF10C0C681C3E
S2140069A060440DF1200CAC440CF814AC43460A21AC
S2140069B02EF06EFD45F26D6255FA80F56B1C03A94C
S2140069C0CA5203F035FD03F035FD03AA30680D49C1
S2140069D007F0B4F80DF10A03019303AB00932246C7
S2140069E038463C21EB1C1DF01DFE09B0BDE8F08FBB
S2140069F00014002000408F402C340020E88503005F
S214006A0030860300EC8503002DE9F04F2E4B89B04D
S214006A10D3E9008990F804B0494640462EF01CF9A8
S214006A2006462DF0DDFD02460B46404649462DF053
S214006A3099FC0022254B2DF04DFE2EF00DF98146D7
S214006A4000242E2703F0F4FC03F0F4FC204BDFF8C0
S214006A508CA003AD32461F4918684B4607F06EF807
S214006A60334652460A212846CDE90374CDE905444B
S214006A7007942EF00DFD08AE5FFA80F8464408F144
S214006A8001004B4652460A2106F8147C28442EF094
S214006A90FFFC064603F0CCFC03F0CCFC0C4B2A466D
S214006AA018680D4907F04AF80DF10A03019358FAE1
S214006AB086F3224658463C21009501331DF0B2FD70
S214006AC009B0BDE8F08F00BFF813002000408F40EB
S214006AD02C34002050860300EC850300E885030074
S214006AE000B54FF0100E4FF0230C60200121054A30
S214006AF0054B82F802E0054A83F803C058701180FF
S214006B005DF804FBCC120020D8120020D41200201E
S214006B102DE9F0470589867A90F812801E4F82B0DC
S214006B20EDB2044690F8049003F082FC03F082FC79
S214006B303346424619493868009506F0FFFFBEB155
S214006B4004F10B03013E164DDFF85CA053FA86F6FF
S214006B500A3414F8013F2B7003F06AFC03F06AFC59
S214006B60514615F8012B386806F0E8FFB442F0D11C
S214006B7003F05EFC03F05EFC0A49386806F0DEFFB0
S214006B80B8F1190F8CBFFF2200221721484602B029
S214006B90BDE8F0471DF082BD2C340020748603004B
S214006BA0C80A00208C8403009486030030B5134D79
S214006BB085B003F03DFC03F03DFC1149286806F063
S214006BC0BDFF00220F4910480DF10E030078019317
S214006BD0009109231721ADF80E201DF023FD08B9FA
S214006BE005B030BD044603F023FC03F023FC224628
S214006BF00649286806F0A2FF05B030BD2C340020F8
S214006C009C860300C80A0020E50A0020BC86030014
S214006C102DE9F041214E84B003F00AFC03F00AFC93
S214006C201F49306806F08AFF00221E4D1E490DF1EE
S214006C300E0308780193009507231521ADF80E2062
S214006C401DF0F0FC8046194F6C1E063503F0F0FB75
S214006C5003F0F0FB14F8012F3946306806F06EFF9B
S214006C60AC42F3D103F0E4FB03F0E4FBBDF80E20E6
S214006C700F49306806F062FFB8F1000F02D104B089
S214006C80BDE8F08103F0D4FB03F0D4FB424609498B
S214006C90306806F053FF04B0BDE8F0812C340020C5
S214006CA004870300CC120020E50A00209486030027
S214006CB0188703002887030030B5134D85B003F00E
S214006CC0B7FB03F0B7FB1149286806F037FF002230
S214006CD00F4910480DF10E0300780193009106232A
S214006CE01321ADF80E201DF09DFC08B905B030BD8F
S214006CF0044603F09DFB03F09DFB224606492868E8
S214006D0006F01CFF05B030BD2C3400205887030069
S214006D10D8120020E50A002068870300002230B55C
S214006D20124B85B0198812480DF10E0503AB01957C
S214006D300C0A00788DF80C100093132102238DF8AE
S214006D400D40ADF80E201DF06DFC08B905B030BD45
S214006D50044603F06DFB03F06DFB064B2246064926
S214006D60186806F0EBFE05B030BD00BFD412002058
S214006D70E50A00202C3400206887030070B51B4C01
S214006D800F2210211A4B20781DF0AAFC68B9184A69
S214006D90937891880133DBB202311E2B9370918079
S214006DA000D070BD0423937070BD0546022003F02A
S214006DB01FFB58B91A2DEAD10D4D2B460F22102174
S214006DC020781DF08DFC1A28F7D0E0E7094E0A4916
S214006DD0306806F0B3FE03F02BFB03F02BFB2A46CD
S214006DE00649306806F0AAFEE4E700BFE50A002080
S214006DF0D40A00202C340020A4870300AC870300AC
S214006E00024B1B7803B97047FFF7B8BF4213002048
S214006E10C379012B00D0704710B50489E4B2012C69
S214006E2011D004B110BD03F003FB03F003FB0C4BC1
S214006E300C49186806F082FE0B4B0C481C70BDE827
S214006E40104003F05FBA03F0F3FA03F0F3FA044BD2
S214006E500749186806F072FE034B1C7010BD00BF91
S214006E602C3400200088030008130020E0120020C5
S214006E70DC87030030B52F4A2F4B12782F48002AA4
S214006E800CBF172118215A788BB002908DF822205B
S214006E902B489A781C7803908DF823202948DA78B6
S214006EA08DF82140284C294D04908DF824205879DF
S214006EB01A798DF8201026490594264C8DF8252041
S214006EC08DF8260007911F220021287802AB069431
S214006ED01DF0E0FA18B304461F4D2049286806F056
S214006EE02DFE1F49286806F029FE03F0A1FA03F0DC
S214006EF0A1FA1C48442300901B4A1C49286806F047
S214006F001DFE1B4923461B4A286806F017FE20462E
S214006F1003F0BCFA1849286806F010FEFEE70222C5
S214006F20042128781DF0EAFA01201DF027FB0BB09B
S214006F3030BD00BF121300200C1300200201060310
S214006F40031F180B0873696C6162732DE30A002037
S214006F50190D000763676D032C3400208C84030032
S214006F602C850300E08A0300248803004085030084
S214006F70508503004C8503006885030038B5032060
S214006F8003F036FA58B9194803F0BCF90446C8B9F4
S214006F90FF22174B1A70BDE83840FFF76BBF154C41
S214006FA01549206806F0CAFD03F042FA03F042FADB
S214006FB01249206806F0C2FD0C4803F0A3F9044607
S214006FC00028E5D0032003F013FA0028E0D0094D8E
S214006FD00949286806F0B2FD03F02AFA03F02AFAF7
S214006FE022460749286806F0A9FDD1E7E0120020EE
S214006FF0E40A00202C340020388803004088030070
S214007000548803002DE9F04F89B005AB00930A229F
S21400701004AB002003A91DF04BFC039B002B3CD0C7
S214007020002006462F4F304DDFF8E4B0DFF8E4804E
S2140070300DF10B0AA7F1060949460DF10A030DF1F9
S2140070400902CDF800A01DF065FC044640BB03F025
S214007050EFF903F0EFF9334659469DF80920286802
S21400706006F06CFD214C03F0E3F903F0E3F914F8A5
S214007070012B4146286806F061FDBC42F3D103F0BF
S214007080D7F903F0D7F91A49286806F057FD0136F4
S214007090039BF6B29E423046CED309B0BDE8F08FD1
S2140070A01349286806F04AFD1249286806F046FD8E
S2140070B003F0BEF903F0BEF90F487B230F4A1049D0
S2140070C00090286806F03AFD0E4923460E4A2868C6
S2140070D006F034FD204603F0D9F90C49286806F07E
S2140070E02DFDFEE7121300202C3400200C13002088
S2140070F08C8403002C850300D08A030024880300B8
S21400710040850300508503004C8503006885030016
S21400711078880300948603002DE9F0430368B64A96
S21400712023F47F4323F007039342044683B000F022
S2140071308D8115D802F17E4293420ED048D9AF4ACF
S214007140934200F0B88102F57C02934234D10320CA
S21400715003F04EF9002840F0418203B0BDE8F0830A
S214007160A74A934200F0C78065D9A64A934200F02A
S214007170D48002F1847202F58032934244D1032017
S21400718003F036F9002840F03782012120791DF0FF
S2140071906FFB0028E1D0032003F02AF90028DCD09A
S2140071A0994C9A49206806F0C9FC03F041F903F0AF
S2140071B041F997492068F2E102F17F42934240F09C
S2140071C0BE808179808803B0BDE8F043FFF7D6BE65
S2140071D0A2F58022934200F0C48002F5403293422A
S2140071E03CD1032003F004F90028B6D0864D874929
S2140071F0286806F0A3FC03F01BF903F01BF9B4F8AB
S2140072000520844928689BE102F17B42934240F0C6
S2140072109680032003F0ECF800289ED07A4D7B4938
S214007220286806F08BFC03F003F903F003F9B4F8C2
S21400723005207949E6E7A2F57C0293424BD002F599
S214007240A022934231D1032003F0D2F8002840F068
S214007250E18103B0BDE8F043FFF7D4BEA2F50022FB
S21400726093426CD16D481DF0F7F80446002840F0B4
S2140072706C81032003F0BCF8002840F061820120F6
S2140072801DF0BAFA03210E201DF096FA032003F033
S214007290AFF8002840F04682FFF7B4FEFFF720FC68
S2140072A003B0BDE8F043FFF7E5BD02F17F4293422D
S2140072B045D1032003F09CF800283FF44EAF524C13
S2140072C05249206806F03AFC03F0B2F803F0B2F830
S2140072D05349206863E1B0F805301B2B00F0BA81F3
S2140072E01E2B00F07681102B7FF437AF03B0BDE87D
S2140072F0F043FFF78DBD032003F07AF800283FF433
S2140073002CAF414D4149286806F018FC03F090F870
S21400731003F090F86279434974E7032003F068F8B5
S21400732000283FF41AAF384C3849206806F006FCAF
S21400733003F07EF803F07EF83B4920682FE1032037
S21400734003F056F800283FF408AF2F4D2F49286861
S21400735006F0F4FB03F06CF803F06CF8226833498F
S21400736050E7437B027B817A314DDFF8D890DFF817
S214007370D880297088F8003089F8002003F058F883
S21400738003F058F82A78204D2A49286806F0D6FBDC
S214007390294B606822891C46284F18609A809E1DDB
S2140073A003F046F803F046F814F8012B394628682F
S2140073B006F0C4FBB442F3D103F03AF803F03AF80F
S2140073C01F49286806F0BAFB032003F011F80028CE
S2140073D040F02F8198F80030FF2B00F0E580032066
S2140073E003F006F8002840F08E8199F8000003B0FC
S2140073F0BDE8F0431DF01EBAA0000A02A0000A0174
S214007400A0000604A00006082C34002038880300DC
S214007410848A0300348A0300F8890300E30A002004
S214007420108A0300408A03004C8A0300A88A0300DF
S21400743012130020C48803000C1300209486030057
S2140074408C840300E50A0020E40A0020B0F805302A
S214007450DBB21E2B1ED8142B40F29A80153B092B4C
S21400746000F2968001A252F823F000BF5B71000084
S214007470917500005F760000917500009175000020
S21400748091750000817600009175000091750000EE
S214007490697600003E2B7BD102F0CAFF02F0CAFFDD
S2140074A0AE4BAF49186806F049FB204603B0BDE86E
S2140074B0F043FFF76DB8B0F80550EDB2A5F1130331
S2140074C0332B35D8DFE813F01A01340015013400E9
S2140074D0100134000B013400340034003400340052
S2140074E034003400340034003400340034003400F7
S2140074F034003400340034003400340034003400E7
S21400750034003400340034003400340034003400D6
S2140075103400340034000601340001013400FC005D
S2140075203400F2003400ED003400F7003400E800C8
S21400753002F07EFF02F07EFF2A46884B89491868D3
S21400754003B0BDE8F04306F0F9BA844D86492868D2
S21400755006F0F4FA8549286806F0F0FA02F068FFAB
S21400756002F068FF824891230090824A8249286888
S21400757006F0E4FA81492346814A286806F0DEFAD6
S214007580204602F083FF7F49286806F0D7FAFEE718
S21400759002F04EFF02F04EFF704B7B49186803B0B6
S2140075A0BDE8F04306F0CABA99F800001DF042F9AB
S2140075B0032002F01DFF00283FF4CFAD7349286872
S2140075C006F0BCFA02F034FF02F034FF7049286877
S2140075D0E5E703B0BDE8F04301F00CB95F4D6B4939
S2140075E0286806F0ABFA02F023FF02F023FFE27AE7
S2140075F0684928680132A3E7584D6449286806F0B0
S2140076009DFA02F015FF02F015FF6349286806F0A0
S21400761095FABAE5514D5D49286806F08FFA02F0F2
S21400762007FF02F007FF62795C49286806F086FAD1
S2140076300FE65649286806F081FA02F0F9FE02F0D5
S214007640F9FE98F8003099F800205549286806F0A9
S21400765075FABFE603B0BDE8F04300F073BD03B0B3
S214007660BDE8F043FFF754BA032002F0C1FE00283D
S21400767040F09E80204603B0BDE8F04301F02CB9F0
S214007680032002F0B5FE002840F0A080204603B09C
S214007690BDE8F04300F090BD03B0BDE8F043FFF74F
S2140076A0B3B903B0BDE8F043FFF73EB903B0BDE899
S2140076B0F043FFF7C9B803B0BDE8F043FFF736B9AB
S2140076C003B0BDE8F043FEF779BF03B0BDE8F04372
S2140076D0FFF748B803B0BDE8F043FEF7DDBF03B0E0
S2140076E0BDE8F043FFF71ABB03B0BDE8F043FFF771
S2140076F05DBA03B0BDE8F043FFF78ABA03B0BDE851
S214007700F043FFF7D9BA2149286806F017FA02F0C5
S2140077108FFE02F08FFE98F800202249286806F0B7
S2140077200DFA62E60D4C1949206806F007FA02F0D9
S2140077307FFE02F07FFE1C49206806F0FFF9ABE5ED
S214007740064C1249206806F0F9F902F071FE02F0C4
S21400775071FE1649206806F0F1F990E52C340020F9
S21400776080890300A88903008C8403002C8503000D
S214007770BC8A03002488030040850300508503006C
S2140077804C85030068850300908903003888030051
S21400779014890300C0890300608A0300D4890300AB
S2140077A0E088030024890300B4880300A08803004F
S2140077B00D4D0E49286806F0C1F902F039FE02F0B8
S2140077C039FE0B49286806F0B9F953E7064D074914
S2140077D0286806F0B3F902F02BFE02F02BFE0549EE
S2140077E0286806F0ABF951E72C34002038880300EF
S2140077F04C8903006889030070B53A4C82B025783E
S214007800B5B9394C394E02F013FE02F013FE228849
S2140078103749306806F092F9FFF7B0FA2388354A00
S214007820013312889BB29A42238018D002B070BDF2
S2140078302E4E02F0FDFD02F0FDFD2F49306806F0E9
S2140078407DF92E4802F05EFD0546002835D100235E
S2140078502B49254A23700B70138002B070BD02F0CE
S214007860E7FD02F0E7FD2749306806F067F9244B8C
S214007870224825801D7002F045FD044638BB0422D0
S214007880214B224C18781B210DEB020301941CF0AF
S2140078905DFF0028CAD0022002F0AAFD0028C5D04D
S2140078A01B49306806F04AF902F0C2FD02F0C2FD3C
S2140078B01849306806F042F9B8E702F0B9FD02F060
S2140078C0B9FD2A461449306806F038F9BFE702F0D9
S2140078D0AFFD02F0AFFD22460F49306806F02EF9E4
S2140078E0CDE700BF131300203C1300202C340020EB
S2140078F01C8B0300E60A0020F88A030014130020FD
S2140079003E130020288B0300E50A00200600010134
S214007910A4870300448B03005488030070B500213D
S21400792001251A4C1A4A037B82B0257011700BB1E0
S21400793002B070BD1749184C019104221B21207813
S21400794001AB1CF003FF05460028F1D0022002F030
S2140079504FFD58B91A2DEBD104221B21207801AB1C
S2140079601CF0F4FE1A28F7D002B070BD0B4E0C497E
S214007970306806F0E3F802F05BFD02F05BFD2A4695
S2140079803068084906F0DAF8E4E700BF1313002071
S2140079903E13002006000301E50A00202C340020D8
S2140079A0A48703006C8B0300F0B5057B0446012D0D
S2140079B083B01BD0042D17D12A4E02F039FD02F0F9
S2140079C039FD2949306806F0B9F82849A07B0B88AC
S2140079D0274C1B1A27480B802A461B21007801AB30
S2140079E001941CF0B3FE50BB03B0F0BD00261D4D45
S2140079F0077902F01DFD02F01DFD1F49286806F0FC
S214007A009DF81B4B194C0193384604221B2101ABF1
S214007A1026801CF09BFE0028E6D0022002F0E8FC40
S214007A200028E1D01549286806F088F802F000FD25
S214007A3002F000FD1249286806F080F8D4E702201C
S214007A4002F0D6FC0028CFD00C49306806F076F855
S214007A5002F0EEFC02F0EEFC0A49306806F06EF822
S214007A60C2E700BF2C340020B88B0300E60A0020D3
S214007A7006000201E50A0020A48B0300A487030089
S214007A80448B0300D88B030070B5857B1A4C82B0FC
S214007A9002F0CEFC02F0CEFC2A461849206806F01A
S214007AA04DF8174A052613880196013B9BB21380B2
S214007AB0144A190A107804228DF806308DF807103B
S214007AC00DEB02031B211CF041FE08B902B070BD8D
S214007AD0022002F08DFC0028F8D00B49206806F042
S214007AE02DF802F0A5FC02F0A5FC2A4607492068FE
S214007AF006F024F802B070BD2C340020008C030081
S214007B00E60A0020E50A0020A4870300288C03006C
S214007B1070B5037B0446012B82B010D0032B2AD10C
S214007B2002F086FC02F086FC1D4B1E49186806F023
S214007B3005F8204602B0BDE87040FFF7A5BF184D17
S214007B40047902F075FC02F075FC1749286805F008
S214007B50F5FF04220526154B20461C881B214FEAFC
S214007B60142C0DEB020301968DF806408DF807C025
S214007B701CF0ECFD08B902B070BD022002F038FC23
S214007B800028F8D00A49286805F0D8FF02F050FC13
S214007B9002F050FC0749286805F0D0FFEBE700BF6D
S214007BA02C340020748C03005C8C0300E60A002052
S214007BB0A4870300448B030070B5867B82B0002E3A
S214007BC039D000241D4D04E0FFF7D8F8E3B29E42FA
S214007BD00CD92B780134002BF6D002F029FC02F0E9
S214007BE029FC174B1749186805F0A8FF2B781BB11E
S214007BF000232B7002B070BD0422134B134C187870
S214007C001B210DEB020301941CF0A0FD0028F1D00F
S214007C10022002F0EDFB0028ECD0094C0C4920684D
S214007C2005F08CFF02F004FC02F004FC0949206811
S214007C3005F084FFDEE7014DD8E700BF13130020F0
S214007C402C340020A48C0300E50A00200600010165
S214007C50A4870300448B030070B5837B224D013B51
S214007C602988DAB2914282B03BD914461F4E07E00B
S214007C70FFF784F8631C2988DAB2914214460BD9C0
S214007C803378002BF4D002F0D3FB02F0D3FB184B72
S214007C901849186805F052FF33781BB1002333707B
S214007CA002B070BD0422144B144C18781B210DEB47
S214007CB0020301941CF04AFD0028F1D0022002F0D5
S214007CC097FB0028ECD00A4C0D49206805F036FFDB
S214007CD002F0AEFB02F0AEFB0A49206805F02EFF6C
S214007CE0DEE7024ED8E700BFE60A002013130020A6
S214007CF02C340020A48C0300E50A002006000101B5
S214007D00A4870300448B030070B5837A82B0072BE8
S214007D1023D1C389058A1AB29D4249D3D2B295426D
S214007D202C4EDCB207D212E0FFF728F8631CDAB25A
S214007D30AA4214460BD83378002BF5D002F078FB15
S214007D4002F078FB244B2549186805F0F7FE3378D7
S214007D507BB10023337002B070BD02F069FB02F005
S214007D6069FB1D4B1E49186802B0BDE8704005F05F
S214007D70E5BE04221B4B1C4C18781B210DEB02039E
S214007D8001941CF0E3FC0028E5D0022002F030FB52
S214007D900028E0D0104C1549206805F0CFFE02F010
S214007DA047FB02F047FB1249206805F0C7FED2E702
S214007DB0C47A02F03DFB02F03DFB074B0D49186804
S214007DC005F0BCFE0521204602B0BDE8704000F07C
S214007DD083B900BF131300202C340020A48C0300AA
S214007DE0D88C0300E50A002006000101A4870300E2
S214007DF0448B0300E48C030070B5214C86B02578D4
S214007E00002D31D11F4B0DF1080C0FCBACE807004D
S214007E101D4E8CF800300D2202AB102130781CF07D
S214007E205FFC237813B1257006B070BD0422174C92
S214007E301B2130780DEB020301941CF087FC002810
S214007E40F2D0022002F0D4FA0028EDD0104C1149EE
S214007E50206805F073FE02F0EBFA02F0EBFA0E492A
S214007E60206805F06BFEDFE702F0E2FA02F0E2FAC5
S214007E70074B0A49186806B0BDE8704005F05EBEBC
S214007E8013130020088E0300E50A002006000101F7
S214007E902C340020A4870300448B0300A48C03002A
S214007EA070B5214C86B02578002D31D11F4B0DF1D1
S214007EB0080C0FCBACE807001D4E8CF800300D22E6
S214007EC002AB102130781CF00BFC237813B1257020
S214007ED006B070BD0422174C1B2130780DEB020350
S214007EE001941CF033FC0028F2D0022002F080FA45
S214007EF00028EDD0104C1149206805F01FFE02F056
S214007F0097FA02F097FA0E49206805F017FEDFE7A9
S214007F1002F08EFA02F08EFA074B0A49186806B08D
S214007F20BDE8704005F00ABE13130020188E03004B
S214007F30E50A0020060001012C340020A487030077
S214007F40448B0300A48C0300F0B5067B0446C57A78
S214007F5083B0062E00F29680DFE806F01223282D66
S214007F603241040002F064FA02F064FA4B4B4C49CA
S214007F70186805F0E3FD03B0BDE8F040FFF790BFDA
S214007F8002F056FA02F056FA444B464900221868A8
S214007F9005F0D4FD0321284603B0BDE8F04000F00C
S214007FA09BB8837A022B28D00521F4E703B0BDE8FE
S214007FB0F040FFF701BE437B012B39D00921EAE7E9
S214007FC002F036FA02F036FA344B3749186805F0F4
S214007FD0B5FD204603B0BDE8F040FFF795BE02F0C1
S214007FE027FA02F027FA2D4B3049186805F0A6FD4F
S214007FF003B0BDE8F040FFF7FFBE284D02F018FAC8
S21400800002F018FA2A49286805F098FD294B1A78D4
S2140080100AB901221A700124274900230988274A31
S2140080200094274802F0ECF80446F8B903B0F0BD17
S2140080301A4EC78902F0FCF902F0FCF921493068B3
S21400804005F07CFD204B1B88BB4209D202F0F0F9FC
S21400805002F0F0F91D49306805F070FD06219AE738
S214008060204603B0BDE8F040FFF7F6BD02F0E0F9A9
S21400807002F0E0F922461649286803B0BDE8F04051
S21400808005F05CBD02F0D4F902F0D4F9034B1149B7
S2140080903246186805F052FD04217CE72C34002097
S2140080A0D48D0300FC8C03009C8D0300BC8D030064
S2140080B0188D03003E130020E80A0020F977000020
S2140080C0141300202C8D0300E60A0020688D0300A0
S2140080D0B88C0300E88D0300042230B584460C46B5
S2140080E0134B144983B0019118781B210DEB020342
S2140080F08DF806C08DF807401CF028FB08B903B0C1
S21400810030BD0446022002F073F90028F7D00A4D6D
S2140081100A49286805F012FD02F08AF902F08AF989
S21400812022460749286805F009FD03B030BD00BFA8
S214008130E50A0020060001012C340020A487030075
S214008140288E030038B5C479012C02D0022C12D038
S21400815038BD0589EDB2022D18D0002DF8D102F0F9
S21400816067F902F067F90F4B0F49186805F0E6FC4F
S2140081700E4B1D7038BD02F05BF902F05BF9094B3F
S2140081800B491868BDE8384005F0D8BC02F050F935
S21400819002F050F9034B0749186805F0CFFC034B73
S2140081A01C7038BD2C3400206C8E03003F1300205A
S2140081B0848E0300548E03002DE9F041857A8046B4
S2140081C082B0002D00F0918000F10A04614E624FEB
S2140081D0254402F02DF902F02DF914F8012F394646
S2140081E0306805F0ABFCAC42F3D102F021F902F0A6
S2140081F021F95A49306805F0A1FC594B98F80B4014
S2140082001B78FF2B11D0574B1B780BB1012C4CD091
S214008210554D00221B2128781CF040FA042C79D8F2
S214008220DFE804F029494F551B00504B1B781BB163
S2140082304F4B1B78002BE6D102F0FAF802F0FAF862
S2140082404C49306805F07AFCFD221B21464B187815
S21400825002B0BDE8F0411CF021BA02F0E9F802F0E5
S214008260E9F84549306805F069FC404602B0BDE8CB
S214008270F041FFF74DBC02F0DBF802F0DBF83F49B7
S214008280306805F05BFC04224FF400743C49287803
S21400829001910DEB02031B21ADF806401CF056FAC7
S2140082A0044620BB02B0BDE8F0812F4BFE221B2106
S2140082B018781CF0F3F9404602B0BDE8F041FFF72D
S2140082C043BE404602B0BDE8F041FFF76DBB02F08A
S2140082D0AFF802F0AFF82B49306805F02FFC4046A7
S2140082E002B0BDE8F041FFF719BB1A4E7DE7022049
S2140082F002F07EF80028D5D02349306805F01EFC31
S21400830002F096F802F096F822462049306805F00A
S21400831015FCC7E702F08CF802F08CF81C493068B0
S21400832005F00CFC04220227154B1B21019328782C
S2140083300DEB02038DF806408DF807701CF006FA68
S21400834004460028AED0384602F052F80028A9D0DD
S214008350D2E700BF2C340020A88E03008C840300D4
S214008360E40A00203E130020E50A0020081300203F
S2140083703F130020B08E0300108F0300E48E03002E
S21400838006000101FC8E0300A4870300288E03006C
S214008390288F03004FF6FF7230B5838985B093426D
S2140083A043D04FF6FE72934238D04C4903EB43035A
S2140083B001EB8302147931F8231053888DF80540B9
S2140083C01C0A4FF0060C8DF80440FF24080A8DF8AE
S2140083D00110D1888DF8033013898DF80200927A47
S2140083E0080A8DF806103E498DF80700180A8DF821
S2140083F009008DF8083008788DF80A206B460B22A5
S2140084001E218DF80B408DF80C408DF800C01CF036
S2140084109DF90446002855D105B030BD0521084613
S21400842005B0BDE8304000F01FBA2E4C2E4D01F0CE
S214008430FFFF01F0FFFF22882C49286805F07EFB2D
S21400844022884FF0060CFF24244902EB420201EB7F
S214008450820331F822208DF80B40110A8DF8012096
S2140084605A888DF802108DF80320110ADA888DF8E4
S21400847004108DF80620120A19798DF807201A893B
S2140084808DF80510997A130A8DF80930144B8DF87B
S214008490082018788DF80A100B221E216B468DF8DE
S2140084A00C408DF800C01CF051F904460028B3D0EB
S2140084B001F0BEFF01F0BEFF22460D49286805F018
S2140084C03DFBA9E701F0B4FF01F0B4FF064B2246DE
S2140084D00749186805F032FB05B030BDEC0A0020ED
S2140084E0E50A0020401300202C3400203C8F0300B7
S2140084F05C8F030038B50446D8B1FF280CD001F0D5
S21400850097FF01F097FF1B4B224618681A4905F0A3
S21400851015FB1A4B1C7038BD01F08AFF01F08AFF6C
S214008520144B1749186805F009FB0222134B1A7002
S21400853038BD104D01F07CFF01F07CFF1149286822
S21400854005F0FCFA104B0D491A780C70002AE2D0A0
S2140085500E481C7001F0D6FE04460028DBD001F061
S21400856067FF01F067FF224628680949BDE83840E2
S21400857005F0E4BA2C340020F48F0300700B0020C2
S214008580B08F03007C8F030042130020E01200200F
S2140085905488030030B50F4A0F4B1478042283B07A
S2140085A00E4D18781E210DEB020301958DF805403F
S2140085B01CF0CCF808B903B030BD044601F038FF13
S2140085C001F038FF064B22460649186805F0B6FA51
S2140085D003B030BD700B0020E50A00200300FFFF4B
S2140085E02C34002018900300184A08B5138801336D
S2140085F09BB20A2B13801DD8B0F80CC0144903EBAD
S214008600430301EB830221F823C0037CB0F80EE09D
S2140086101371437DB0F81110B0F813C09372A2F82E
S21400862002E0D1800420BDE808400121A2F808C07D
S21400863000F01AB901F0FCFE01F0FCFE054B0649FD
S2140086401868BDE8084005F079BA00BF401300205E
S214008650EC0A00202C3400208890030030B5294B0B
S21400866085B05B681A0CADF80C30C37A8DF80E2016
S214008670082B0CD00B2B2BD0234C03221E2120784A
S21400868003AB1CF063F8054648B905B030BD1F4B78
S2140086901B881A0A8DF80D308DF80E20ECE701F0D5
S2140086A0C7FE01F0C7FE1A4A2378106819492A4601
S2140086B005F044FAB5F5C17FE7D103221E212078E4
S2140086C003AB1CF043F8B0F5C17FF6D005B030BD63
S2140086D00C220E4C8DF80C206388190A8DF80D308C
S2140086E08DF80E1001F0A4FE01F0A4FE9DF80E50C9
S2140086F0074862889DF80D3007490068009505F028
S2140087001DFAB9E7D8900300E50A0020640B0020A4
S2140087102C34002048900300B09003008389B3F502
S214008720E06F03D90521072000F09EB8024A012118
S2140087300720138000F098B8640B00208389B3F5F7
S214008740E06F03D905210A2000F08EB8024A012105
S2140087500A20538000F088B8640B00208389642BBD
S21400876003D905210D2000F07FB8034A01210D2012
S214008770938000F079B800BF640B00208389B3F5BE
S2140087807A7F03D90521102000F06EB8024A012135
S2140087901020D38000F068B8640B00208389642B17
S2140087A003D90521132000F05FB8034A01211320E6
S2140087B0138100F059B800BF640B00208389B3F51D
S2140087C07A7F03D90521162000F04EB8024A01210F
S2140087D01620538100F048B8640B0020044A01219B
S2140087E09378192023F01003937000F03DB800BF73
S2140087F0CC12002038B5C479012C02D0022C12D03D
S21400880038BD0589EDB2022D18D0002DF8D101F043
S2140088100FFE01F00FFE0F4B0F49186805F08EF99A
S2140088200E4B1D7038BD01F003FE01F003FE094B30
S2140088300B491868BDE8384005F080B901F0F8FD2E
S21400884001F0F8FD034B0749186805F077F9034B6C
S2140088501C7038BD2C340020F89003004313002011
S21400886010910300E090030030B584460D46164B89
S214008870164C1B6883B0ADF8043003221E21207806
S21400888001AB8DF805C08DF806501BF05FFF08B9E8
S21400889003B030BD054601F0CBFD01F0CBFD0C4B1F
S2140088A02A4618680B4905F049F9B5F5C17FEFD19E
S2140088B003221E21207801AB1BF048FFB0F5C17FD4
S2140088C0F6D003B030BD00BF5C920300E50A00207E
S2140088D02C340020349103002DE9F041857A80463F
S2140088E084B0002D00F0048200F10A04AD4EAE4FB5
S2140088F0254401F09DFD01F09DFD14F8012F394639
S214008900306805F01BF9AC42F3D1A84C01F090FD9D
S21400891001F090FDA649306805F010F900221E21EE
S21400892020781BF0BBFE98F80B30013B1A2B3BD887
S214008930DFE813F01B0005013A00120120013A009F
S21400894032013D003A0026013D003A002C0143006A
S2140089503A006D0073003A009D00A3003A00CE0076
S214008960D4003A0000014C019A0140F2011701F0D0
S2140089705FFD01F05FFD8F49306805F0DFF898F87D
S2140089800C00FFF7B7FD8C4B03AD1B680322ADF858
S2140089900C301E212B462078ADF80D701BF0D6FE4D
S2140089A00746002840F0F18104B0BDE8F08140465B
S2140089B004B0BDE8F041FFF751BE0F277F4B03AD73
S2140089C09B881E211A0A8DF80E208DF80D30032282
S2140089D02B4620788DF80C701BF0B8FE0746002852
S2140089E0E2D001F025FD01F025FD3A4630687449D5
S2140089F005F0A4F8B7F5C17FD6D12B4603221E2179
S214008A0020781BF0A3FEB0F5C17FF6D0CCE7404639
S214008A1004B0BDE8F041FFF7B1BE1227674B03ADC7
S214008A20DB881E211A0A8DF80E208DF80D300322E1
S214008A302B4620788DF80C701BF088FE0746002821
S214008A40B2D001F0F5FC01F0F5FC3A4630685C491E
S214008A5005F074F8B7F5C17FA6D12B4603221E2178
S214008A6020781BF073FEB0F5C17FF6D09CE7404639
S214008A7004B0BDE8F041FFF791BE15274F4B03AD9C
S214008A801B891E211A0A8DF80E208DF80D30032240
S214008A902B4620788DF80C701BF058FE07460028F1
S214008AA082D001F0C5FC01F0C5FC3A463068444966
S214008AB005F044F8B7F5C17F7FF476AF2B46032266
S214008AC01E2120781BF042FEB0F5C17FF6D06BE782
S214008AD0404604B0BDE8F041FFF770BE1827374B9C
S214008AE003AD5B891E211A0A8DF80E208DF80D3015
S214008AF003222B4620788DF80C701BF027FE0746C5
S214008B0000283FF451AF01F093FC01F093FC3A4685
S214008B1030682B4905F012F8B7F5C17F7FF444AFF3
S214008B202B4603221E2120781BF010FEB0F5C17FD5
S214008B30F6D039E704B0BDE8F041FFF74FBE01F0CC
S214008B4077FC01F077FC1F49306804F0F7FF04B0AB
S214008B50BDE8F041FFF71EBD01F06AFC01F06AFCBB
S214008B601949306804F0EAFF404604B0BDE8F04119
S214008B70FFF73ABD404604B0BDE8F041FFF70ABC37
S214008B80404604B0BDE8F041FFF7D8BD404604B00B
S214008B90BDE8F041FFF7E2BD404604B0BDE8F04155
S214008BA0FFF7BCBD2C340020A88E0300E50A002089
S214008BB08C840300F09103005C920300640B002099
S214008BC0349103001C9203003C9203008F4D01F089
S214008BD02FFC01F02FFC8E49306804F0AFFF2B7895
S214008BE0002B40F0B6804FF47A718A4A8A48127891
S214008BF002FB01F101220092884A01F001FB0746C0
S214008C00002840F0F98001234FF48D718448854A8E
S214008C1000682B70ADF80C00ADF80D10937803AD1E
S214008C2023F0010393701E212B46032220781BF0AD
S214008C308DFD074600283FF4B7AE01F0F9FB01F0C2
S214008C40F9FB3A463068784904F078FFB7F5C17FFB
S214008C507FF4AAAE2B4603221E2120781BF076FD59
S214008C60B0F5C17FF6D09FE601F0E2FB01F0E2FB33
S214008C706E49306804F062FF644B1A78002A39D0D7
S214008C80002265481A7001F03DFB0546002840F0BA
S214008C90938040F21B11634A03AD937843F00103BF
S214008CA093705F4B03221B682078ADF80C30ADF84C
S214008CB00D102B461E211BF049FD074600283FF4E9
S214008CC073AE01F0B5FB01F0B5FB3A463068564985
S214008CD004F034FFB7F5C17F7FF466AE2B4603225F
S214008CE01E2120781BF032FDB0F5C17FF6D05BE682
S214008CF04F4E0AE640F21B114A4A03AD937843F002
S214008D0001039370464B03221B682078ADF80C30A5
S214008D10ADF80D102B461E211BF018FD0746002847
S214008D203FF442AE01F084FB01F084FB3A46306823
S214008D303D4904F003FFB7F5C17F7FF435AE2B46FF
S214008D4003221E2120781BF001FDB0F5C17FF6D06E
S214008D502AE640F21A47324B03AD1B680322ADF8F1
S214008D600C301E212B462078ADF80D701BF0EEFC63
S214008D70074658BB01F05CFB01F05CFB2D493068F0
S214008D8004B0BDE8F04104F0D9BE01F051FB01F09B
S214008D9051FB3A463068244904F0D0FEB7F5C17F4F
S214008DA07FF402AE2B4603221E2120781BF0CEFC59
S214008DB0B0F5C17FF6D0F7E501F03AFB01F03AFBDB
S214008DC02A461D49306804F0B9FE62E701F030FB20
S214008DD001F030FB3A461449306804F0AFFEB7F5B0
S214008DE0C17FC7D12B4603221E2120781BF0AEFC84
S214008DF0B0F5C17FF6D0BDE701F01AFB01F01AFB13
S214008E003A460E49306804F099FEFCE6421300200C
S214008E1074910300700B0020E0120020016E000029
S214008E205C920300CC12002034910300649103008E
S214008E302C340020AC910300548803008491030076
S214008E4008B506F07BFDFDF7DBF906F085FDFDF7BE
S214008E5007FB05F0C7FCF8E70BF096BB08B504481F
S214008E600BF040F9BDE8084002480BF06BB900BFB4
S214008E7028980300089803000120704700B5C3B087
S214008E800BF09AFA0BF0C3FA10B943B05DF804FB86
S214008E90FFF7F2FF0028F8D001A81BF0D7FA002849
S214008EA0F3D101A801F016F901A8FDF7DBFA01A835
S214008EB0FEF732F943B05DF804FB00BF08B50321A6
S214008EC0802002F0A5FA03214FF4806002F0A0FA99
S214008ED003214FF4906002F09BFA09214FF4C06022
S214008EE002F096FA09214FF4F06002F091FA092197
S214008EF03E2002F08DFA2D20092102F089FA00208A
S214008F0008BD00BF144B10B51B68C3F30743012B05
S214008F100DD14FF480230420104A114C526E114993
S214008F20520358BF104A6366086258BF536604F07F
S214008F308BFB04F023FB04F0ABFB04F043FB04F0D4
S214008F407DFBFFF7BBFF04F02BFB01F039FDBDE80E
S214008F50104005F0F9BA00BF0080E00F0080004026
S214008F60009000400020014000A0004008B501F03D
S214008F70B3FCBDE8084000F0E3B800BF08B506F053
S214008F8079F804F087FB00F03DF804F039FE08F0AD
S214008F906DFABDE8084005F071B900BF08B504F0E9
S214008FA0C1FA04F0D7FABDE80840FFF757BF00BF84
S214008FB001F042BA704700BF01F0D0B9FFF75EBFBC
S214008FC0704700BF831E012B0ED90239012900D934
S214008FD070470128FCD80022094B05211B69104662
S214008FE0C3F3401303F09AB90129F1D8044B0422C5
S214008FF01B6905210020C3F3401303F08FB900BF9F
S21400900000C0034030B5164993B0164805F0C6FBBD
S214009010154B4FF4C06203F11C059C464FF4803399
S21400902012491348009113490DF12C0ECDE90301A6
S214009030CDE90523BCE80F00AEE80F009CE807006A
S21400904007AC8EE8070095E80F0084E80F0021467D
S21400905003AB0BAA084805F027F813B030BD00BFD5
S2140090601C0C00207C13002058980300441300209A
S2140090700000064029000005A4130020014B1868D4
S21400908005F0CCB8A4130020014B186805F0C6B84C
S214009090A4130020014B1A6A18681047A413002076
S2140090A0012070470120704710B50BF0F1F9044617
S2140090B001F096F9002808BF0024FFF7F1FF00280A
S2140090C014BF2046002010BD38B505F073FD0446D9
S2140090D00BF0ECF904281ED0022808BF0124FFF785
S2140090E0D9FF04284FF000051BD0022808BF012432
S2140090F001F06CF904281AD0022808BF0124FFF7F3
S214009100D1FF042819D0022808BF0124002D18BF5B
S2140091100024204638BDFFF7BDFF04284FF00105A8
S214009120E3D101F053F904284FF00105E4D1FFF72D
S214009130B9FF04284FF00105E5D10024204638BDCC
S214009140014801F0D1BA00BF8898030070B586B018
S214009150EC46264C4FF440360FCCACE80F0094E8B3
S214009160030001248CE8030021463A2001F0F8FCB5
S2140091702146282001F0F4FC00234FF400701C4A1E
S214009180ADF8100002921846224603218DF80E40D4
S21400919003F0C4F8002304221846114603F0BEF874
S2140091A0042202201146002303F0B8F802212346C9
S2140091B00846042203F0B2F8002320462246194649
S2140091C003F0ACF84FF480251C220A4B0A4CC3F877
S2140091D02C666946C3F834560848C3F83046C3F8C8
S2140091E01C2604F01DF806B070BD00BFA098030052
S2140091F040420F0000C003400200040000C00540CB
S2140092002DE9F04104271F4D1F4E05F5005801209B
S214009210C8F8707000F0FCFE0821304604F08AF8AA
S21400922005F58055012000F0F3FE64202F6700F05E
S214009230EFFE0120C8F8707000F0EAFE10213046FC
S21400924004F078F8FF21304604F074F803460F4C1B
S214009250FF213046237004F06DF80346FF213046A8
S214009260637004F067F803460120A37000F0D0FE98
S2140092702F6763782278A0781B0243EA02431843DC
S214009280BDE8F08100C0034000C00540C8130020C0
S21400929008B5FFF7B5FFB0F5000F28BF00F17F4017
S2140092A02BF09EF90022074B2BF014FA02460B46D1
S2140092B02BF05AF84FF06042034B2BF035FB41EC95
S2140092C0100B08BD0000F43FFFFF6F412DE9F04191
S2140092D004251B4C1B4E04F500580120C8F870509E
S2140092E000F096FE4421304604F024F80221304671
S2140092F004F020F804F58054012000F089FE25676C
S214009300FFF77EFF0746C8F87050012000F080FE89
S2140093104421304604F00EF80021304604F00AF8E6
S214009320012000F075FE2567B80A2BF059F90022D7
S214009330054B2BF0CFF941EC100BBDE8F08100BFD8
S21400934000C0034000C005400000A03F10B52DED52
S214009350028B00F051F9B0EE408AB7EE040A0A24F8
S21400936000F094F9FFF74CFF013CFBD19FED0A0A91
S21400937000F08CF90A24FFF743FF013CFBD10A24D6
S214009380FFF73EFF013CFBD1B0EE480ABDEC028B76
S214009390BDE8104000F07AB9000000002DE9F04F5B
S2140093A04FF00408DFF8C89183B001206A4E00F041
S2140093B02FFEFFF7CBFE0120C9F8708000F028FED4
S2140093C00621304603F0B6FF012000F021FE634B75
S2140093D00520C3F8708000F01BFE0A2000F018FE7F
S2140093E0032102225E4B012019705E4B5E4F1A70FD
S2140093F0C9F8708000F00CFE2221304603F09AFF78
S2140094000DEB08040DF107053870FF21304603F018
S21400941091FF04F8010BA542F7D14FF00409DFF8DD
S2140094203CB1DFF84CA1DFF83081012000F0F0FD00
S2140094300120CBF87090CAF8709000F0E9FD412149
S214009440404603F077FFAA213870404603F072FFCB
S214009450464DAA212870404603F06CFF6870012034
S21400946000F0D6FD0120CBF87090CAF8709000F09E
S214009470CFFD2221404603F05DFF2C46EE1C3870DF
S214009480FF21404603F056FF04F8010BA642F7D131
S2140094900424324E012000F0BBFD34672B78AA2B43
S2140094A059D16B78AA2B56D1DFF8C4800120C8F8B2
S2140094B0704000F0ADFD4121274803F03BFF9DF8CA
S2140094C004103870244803F035FF03469DF8051055
S2140094D02B70214803F02EFF034601206B7000F02E
S2140094E097FD34670120C8F8704000F091FD4221D6
S2140094F0194803F01FFF5021174803F01BFF0346CF
S21400950000212B70144803F015FF034640216B70B2
S214009510114803F00FFF03460021AB700E4803F01E
S21400952009FF03460120EB7000F072FD346701204E
S214009530C8F8704000F06CFD0821074803F0FAFEFA
S214009540012000F065FD6420346700F061FD012015
S21400955003B0BDE8F08FFEE700C0054000D0034032
S214009560D2130020D4130020D3130020C8130020E9
S21400957000E0034030B585B06D461B4B1B4C0FCB4F
S21400958085E80F0001213A2001F0EAFA01212E2099
S21400959001F0E6FA01230B221946184602F0BEFE39
S2140095A001230B221846022102F0B8FE29460325A5
S2140095B00F4A1048D2F89834034043F4003343F07F
S2140095C00103C2F89834D2F89434034043F00113F0
S2140095D0C2F894342046C2F8905402F0FBFE1023E2
S2140095E0A36005B030BD00BFB89803000000014A74
S2140095F000C00340FCFFF0FF30B501220223082420
S21400960087B01D490DF103001C4DCDE901101C4823
S21400961001A904958DF80340ADF80C20ADF8143080
S21400962003F08EF8012805D1154C204602F044FFC1
S2140096300128FAD0D0B96B78287803F0FC0343EA07
S21400964000202AF0DDFF00220E4B2BF043F800220C
S2140096500D4B2BF03FF806A3D3E900232BF064F95B
S2140096602BF01AFB00EE100A07B030BDFEE700BF75
S2140096700000000080FFCF4090000400DC130020B4
S2140096800000014A0000F43F0000D03FB7EE047A25
S214009690B4EEC70AF1EE10FA10B588B007DCB5EEE6
S2140096A0C00AF1EE10FA2BD50023184601E0FC2381
S2140096B0FF2000224FF0080C03241A498DF8010001
S2140096C008704B7018491948039103A98DF80230A9
S2140096D0CDF810D006928DF800C0ADF81440ADF865
S2140096E01C2003F02DF8012805D1104C204602F06E
S2140096F0E3FE0128FAD010B9012008B010BDFEE73D
S214009700C0EE077AF1EE006A9FED097A67EEA67A58
S21400971067EE877AFCEEE77A17EE903AC3F30720F7
S214009720DBB2C6E7E8130020900001000000014A03
S21400973000FC7F46F0B589B0FFF71CFF0521062028
S214009740002303224FF4C064ADF80010A649A74DCD
S2140097508DF802000391A64803A92C80ADF81420CA
S214009760CDF810D00693ADF81C3002F0E9FF0128C2
S21400977005D19F4C204602F09FFE0128FAD0D8B9AA
S2140097809C4A0123039202229B4E994803A9CDF8D6
S21400979010D00696ADF81C208DF80030ADF81430C9
S2140097A002F0CEFF012805D1914C204602F084FE3F
S2140097B00128FAD008B1FEE7FEE741F29512338899
S2140097C05BBA9BB2934200D0FEE701232B804FF496
S2140097D08273ADF800300323ADF81430824B8DF859
S2140097E002000690ADF81C0003A98148CDF810D001
S2140097F0039302F0A5FF012805D17D4C204602F018
S2140098005BFE0128FAD0002840F0E6804FF4807313
S2140098102B800223ADF8003001238DF8023003239D
S214009820ADF81430704B0690ADF81C0003A97048D4
S214009830CDF810D0039302F083FF012805D16C4CBD
S214009840204602F039FE0128FAD0002840F0C580F4
S2140098504FF67F622A8047F60872ADF80020FE2297
S2140098608DF802200322654B654C069023605E4B04
S214009870ADF81C0003A95E48CDF810D0ADF8142052
S214009880039302F05DFF012805D1594F384602F0D8
S21400989013FE0128FAD0002840F0A0804FF4805331
S2140098A02B800523ADF8003010238DF802300323FB
S2140098B0ADF814304C4B0690ADF81C0003A94C488C
S2140098C0CDF810D0039302F03BFF012805D1484F96
S2140098D0384602F0F1FD0128FAD000287FD1022395
S2140098E0ADF800300323ADF814303F4B28808DF8D8
S2140098F002000690ADF81C0003A93D48CDF810D034
S214009900039302F01DFF012805D1394F384602F0B7
S214009910D3FD0128FAD0002862D108238DF8003044
S2140099200123ADF814300223ADF81C30314B30481B
S21400993003A9CDF810D00696039302F001FF012884
S21400994005D12B4F384602F0B7FD0128FAD0002883
S21400995047D12C4B4FF2085223604BF6F563ADF817
S21400996000202B80BE2203231F490690ADF81C0062
S21400997003911F4803A9CDF810D08DF80220ADF84A
S214009980143002F0DDFE012805D1194C204602F005
S21400999093FD0128FAD028BB164B01220393072417
S2140099A00223134803A9CDF810D006968DF8004080
S2140099B0ADF81420ADF81C3002F0C2FE012805D127
S2140099C00B4C204602F078FD0128FAD058B93088B2
S2140099D040BA80B209B0F0BDFEE7FEE7FEE7FEE75C
S2140099E0FEE7FEE7FEE7FEE790000100E813002032
S2140099F00000014A90000400DC1300200000203F15
S214009A00D81300209A99993F30B583B06D461E4C06
S214009A1028461E4903F0C0F995E8030084E80300D1
S214009A2020682AF0DDFD0022194B2AF053FE02467C
S214009A300B462AF099FC12A3D3E900232AF074FF00
S214009A400124144A144DC2E90001144B6C621968D3
S214009A50B1F5806F01D303B030BD02201968D2E99A
S214009A6000450F4A02EBC1021968C2E90045013100
S214009A70196003B0BDE8304000F0CABAAFF300800A
S214009A8000000000E0FFEF400C3400200040004AD9
S214009A900000F43F183400200060004A083400201C
S214009AA0081400200122054B03F5005C03F58051E5
S214009AB0CCF8042018654A60704700BF0040004A92
S214009AC0012330B5164A83B0D360536903F4A073FC
S214009AD0B3F5807FF9D16D46124C2846104903F045
S214009AE05BF995E8030084E8030020682AF078FD17
S214009AF000220D4B2AF0EEFD02460B462AF034FCFF
S214009B0005A3D3E900232AF00FFF084BC3E90001A1
S214009B1093ED000B03B030BD00000000E0FFEF4007
S214009B200040004A0C3400200000F43F18340020A7
S214009B30F0B503230025012793B02F4C0DF1200C20
S214009B4003958DF80E300FCCACE80F000FCCACE8C8
S214009B500F0094E80300294E8CE8030039462A20BB
S214009B60CDE906550595ADF80870ADF80A50049590
S214009B7000F0F6FF304603F04DF802214FF4B060D7
S214009B8001F046FC02232A4630461D498DF8173060
S214009B9003F0C0F804462B462A463046194900947E
S214009BA08DF823708DF8194003F0CEF84AF2A10222
S214009BB0042305A90A90ADF80820304608AA8DF8B7
S214009BC021308DF80C708DF80E508DF8115002F083
S214009BD001FE02AA304603A902F0C4FF0A4BD3F8DE
S214009BE028233A43C3F82823D3F8282342F48032A4
S214009BF0C3F8282313B0F0BDC89803000040004AFD
S214009C00002D31018096980000C00340F0B5032374
S214009C100025012793B02D4C0DF1200C03958DF8EF
S214009C200E300FCCACE80F000FCCACE80F0094E879
S214009C3003008CE8030039462A20CDE90655059531
S214009C40ADF80870ADF80A50049500F089FF0221BF
S214009C504FF4B06001F0DCFB02231D4E2A4630466E
S214009C601C498DF8173003F055F840F201230446DE
S214009C702A46ADF8233030462B46174900948DF817
S214009C80194003F061F84AF2A102042305A9ADF8D1
S214009C9008200A9008AA30468DF821308DF80C70FE
S214009CA002F098FD02AA304603A902F05BFF0B4BB8
S214009CB0D3F828233A43C3F82823D3F8282342F4BA
S214009CC08032C3F8282313B0F0BD00BFC898030045
S214009CD00040004A002D31018096980000C00340E5
S214009CE02DE9F04F4FF0010887B0FFF78FFFA64C25
S214009CF0A649A74AA74B206DB7EE040A206DC1F807
S214009D0004802265C3F804804FF48065FFF7BEFC2C
S214009D1000260027C4F80C80636903F4A073B3F52B
S214009D20807FF9D1214604A803F036F804982AF07B
S214009D3067FC02460B46304639462AF015FB013DC5
S214009D4006460F46E6D10022934B2AF0C3FC9FED51
S214009D50930A4FF48069002400254FF0010A064656
S214009D600F46DFF82482FFF791FCC8F80CA0D8F85D
S214009D70143003F4A073B3F5807FF8D1414604A8ED
S214009D8003F00AF804982AF03BFC02460B462046ED
S214009D9029462AF0E9FAB9F1010904460D46E4D14C
S214009DA000227D4B2AF096FC02460B46304639468A
S214009DB02AF0D8FA02460B466FA1D1E900012AF034
S214009DC0B3FD04460D46764B0022C3E90045754BAD
S214009DD02AF006FF0022002800F0B980714B2046CA
S214009DE029462AF0BFFA00226F4B2AF073FC0022A5
S214009DF06E4B2AF0B9FA2AF02FFF4FEA804B4BF051
S214009E00004B4FF001084FF48066002400255F4B9E
S214009E105D4FC3F80480A3F58053C7F850B0C3F86D
S214009E200480C7F80C807B6903F4A073B3F5807FC9
S214009E30F9D1394604A802F0AFFF04982AF0E0FBF7
S214009E4002460B46204629462AF08EFA013E044674
S214009E500D46E6D10022504B2AF03CFC0022544B23
S214009E60804689462AF036FC02460B462AF07CFAE3
S214009E7043A3D3E900232AF057FDDFF848A10022C8
S214009E80CAE900014B4B404649462AF023FC2AF01B
S214009E90BBFE01264FF480653C4B00F311005E606C
S214009EA03C4AC0F3110343EA0B03374C01933B656E
S214009EB05660E660636903F4A073B3F5807FF9D15A
S214009EC0214604A802F068FF013DF2D10FF2B00B64
S214009ED0DBE900ABB7EE000AFFF7D8FB022000F084
S214009EE097F8354D354FDFF8E080274C05F1A0098F
S214009EF002AE0123E360636903F4A073B3F5807FC9
S214009F00F9D12146304602F047FF96E8030087E87D
S214009F10030038682AF064FB0022254B2AF0DAFB9F
S214009F2002460B462AF020FA52465B462AF0FCFC14
S214009F30C8E90001D8E90023E5E802234D45D8D159
S214009F40114802F067FE019807B0BDE8F08F1C4B81
S214009F50204629462AF006FA0022134B2AF0BAFBBE
S214009F600022124B2AF000FA2AF076FE4FEA804BC7
S214009F7047E700BFAFF3008000000000C0FFDF40EF
S214009F8000000000E0FFEF400040004A0060004A8A
S214009F90000002800050004A0000503F0000000011
S214009FA0F81300200000F03F0000E0400000E03F13
S214009FB00000F43F000030C0081400200C340020DD
S214009FC00000E83F001400201834002030B50024BC
S214009FD0012585B04FF4C0600921CDE90044CDE9E4
S214009FE002448DF8005001F013FA29462C2000F0A8
S214009FF0B7FD69464FF09440ADF8004002F00AFF06
S21400A00021464FF0944002F0F3FE05B030BD00BF8D
S21400A01010B52AF0E5FA15A3D3E900232AF05AFB77
S21400A02002460B464FF060400F492AF09BF92AF093
S21400A03013FE012104464FF0944002F0DFFE4FF07D
S21400A040944002F0CFFEA042F9D200214FF0944097
S21400A05002F0CEFEBDE8104000214FF0944002F022
S21400A060CDBE00BFAFF30080FFFF6F41FCA9F1D269
S21400A0704D6240400000000070B5154B2DED028B80
S21400A0801E6D5C6D02F0B6F8C4F38800B0EE408A30
S21400A0902AF0A6FA0CA3D3E900232AF063F90446B3
S21400A0A0F0B20D462AF09CFA02460B462046294698
S21400A0B02AF058F92AF0F0FD07EE900A38EE670A03
S21400A0C0BDEC028B70BD00BF6666666666127140A8
S21400A0D00080E00F0368384A23F47F4323F0070329
S21400A0E093420CD002F1827293420BD130B5B0F895
S21400A0F005100446492983B008D003B030BD2F4B65
S21400A1001B7803B9704702201AF036BC01252B4B8A
S21400A110002200791D701AF0C1FA054640BB20796E
S21400A1201AF00EFA04460028E7D0254D254928687F
S21400A13003F004FD2449286803F000FD00F078F9D8
S21400A14000F078F9214843230090214A21492868E5
S21400A15003F0F4FC20492346204A286803F0EEFC6E
S21400A160204600F093F91E49286803F0E7FCFEE756
S21400A170134C1449206803F0E1FC1349206803F0EF
S21400A180DDFC00F055F900F055F910483F2300902B
S21400A1900F4A1049206803F0D1FC0F492B460F4A9E
S21400A1A0206803F0CBFC284600F070F90C492068C4
S21400A1B003F0C4FCFEE700BFA00006012034002028
S21400A1C02C3400208C8403002C8503006499030043
S21400A1D0F098030040850300508503004C8503007B
S21400A1E06885030091F8243033B90120034A81F8CA
S21400A1F02400136803441360704700BF283400200F
S21400A2002DE9F04784B0054691461E468A469DF8DD
S21400A210307009B9002F56D1002D61D0DFF8E080EC
S21400A220284604F0C1FFD8F8004044B1A54202D148
S21400A2305AE0A54230D0A446246A002CF9D1002367
S21400A240504685F8243003A937B105F01BF90028DD
S21400A2503DD004B0BDE8F08705F014F90028F8D129
S21400A2602B462846CDE90077234A039904F03CFFA5
S21400A2700028EED1D8F80030C5E9069685F8257096
S21400A280002B35D01A461B6A002BFBD11562002323
S21400A2902B6204B0BDE8F0872B6ACCF8203095F826
S21400A2A02430002BCBD001F07BFC144A1368013B12
S21400A2B0136001F07BFC0023504685F8243003A988
S21400A2C0002FC9D0C1E7212004B0BDE8F087CDE952
S21400A2D000002B462846084A039904F035FFC7E7D6
S21400A2E0222004B0BDE8F0872B6AC8F80030D6E715
S21400A2F0C8F80050CBE700BFE5A1000028340020D6
S21400A3002434002008B310B5044604F04DFF114A6B
S21400A310136843B19C4202D119E09C4205D01A460C
S21400A3201B6A002BF9D1002010BD236A136294F833
S21400A3302430002BF7D001F033FC074A1368013BAA
S21400A340136001F033FC002010BD22207047236A02
S21400A3501360ECE72434002028340020F8B5194DAB
S21400A3602B68EBB1184F3C68D4B1002601E0246A94
S21400A370B4B194F82430002BF9D001F011FC2B680E
S21400A38084F82460013B2B6001F010FC94F8253023
S21400A3903BB1D4E9063120469847246A002CE8D120
S21400A3A0F8BD3B68002BF4D0A34208D01A461B6ABF
S21400A3B0002BEED0A342F9D1236A1362E9E7236AA1
S21400A3C03B60E6E72834002024340020034B1B685B
S21400A3D0002B0CBF01200420704700BF283400204B
S21400A3E0024B1868B0FA80F0400970472834002005
S21400A3F00B4B02461B788BB10A4B1B78834234BF4B
S21400A40000200120084B1B783BB1084B1B7843FA11
S21400A41002F212F0010F08BF002070470120F1E79A
S21400A420300C0020310C002030340020320C00208C
S21400A430704700BF704700BF08B54FF0000E0421FC
S21400A4404FF0010C1F22074B074883F800E0074B2C
S21400A45080F800C01970064B1A7003F021FB054BFC
S21400A460186008BD30340020300C0020310C00206D
S21400A470320C00202C340020024B0349186803F0ED
S21400A4805DBB00BF2C3400207C99030070B50C4CDB
S21400A4900C490646206803F051FB03F001FB054615
S21400A4A0206803F0F1FA3046FFF7E6FF284603F08F
S21400A4B0EBFA20680449BDE8704003F03FBB00BFDC
S21400A4C02C3400208099030084990300FEE700BF27
S21400A4D010B500F039F8194C19498C421FD21948AA
S21400A4E0013940EA04035B072246A1EB040118D1B8
S21400A4F02B2916D90346890801314FEA510C00EB87
S21400A500CC0CB3EC027B6345A2EC027BF9D1CA0704
S21400A51021F0010303D550F8232044F82320FBF74D
S21400A52033FE21F003010431064B014453F8040BBB
S21400A5308B4242F8040BF9D1F1E700BFC00A0020B5
S21400A540781200204CE40300044B054A9A60D3F8C6
S21400A550882042F47002C3F88820704700ED00E0BF
S21400A56000600000014B1868704700BF380C0020E0
S21400A570094B1B6F03F00703022B09D0032B04D0F3
S21400A580012B00D0FEE705487047054B186870475A
S21400A590044B1868704700BF00800040002D310152
S21400A5A03C0C0020380C00200D4B1B6F03F00703FB
S21400A5B0022B12D0032B0DD0012B00D0FEE7094B47
S21400A5C00749094A086FC0F303300130B3FBF0F0C7
S21400A5D010607047054B1B68F2E7054B1B68EFE7FA
S21400A5E000800040002D3101340C00203C0C00207F
S21400A5F0380C00200048704700B4C404014B1868AB
S21400A600704700BF3C0C0020104B114A1860136FB7
S21400A61003F00703032B00D07047136F03F0070304
S21400A620022B0FD0032B03D0012B00D0FEE70948E6
S21400A630074B094A1B6FC3F303330133B0FBF3F038
S21400A64010607047054B1868F2E700BF3C0C00200E
S21400A65000800040002D3101340C0020380C002012
S21400A6600020704700487047002D31014FF400402D
S21400A670704700BF4FF47A70704700BF014B1868F0
S21400A680704700BF400C002000239B6AB3F5C04F04
S21400A69003D2074A1968914203D0002303708360EF
S21400A6A07047012202709A689B69C0E901237047CF
S21400A6B007B0CD5E00230360704700BF03680B60E1
S21400A6C001607047064910B40A68064C1044A04260
S21400A6D08CBF4FF0FF3208605DF8044B10467047A1
S21400A6E0440C00200080002043680BB10068184727
S21400A6F022207047704700BF174B1A7852B3174B8B
S21400A700013A00B5D2B28646181D00EB820001E081
S21400A71098421DD053F8041B0A6892F805C0F44509
S21400A720F6D192F800C0BCF1020FF1D013790C48B4
S21400A73003EB43031B0118440368084623FA0EF391
S21400A740DB4303F0010313705DF804EBFFF7D2BFA1
S21400A7505DF804FB704700BF849803002C0C0020B3
S21400A76014C0034010B5044601213A2082B000F020
S21400A770F7F9002301226179207901F0CFFD2379D2
S21400A780114A03EB43031B011A4413686179A2794B
S21400A790CB40DB43022A03F00103237002D00020E3
S21400A7A002B010BD00F098F86079084900F0AEF8E5
S21400A7B00123627920791146CDE9003301F02CFDA2
S21400A7C0002002B010BD00BF14C00340F9A6000070
S21400A7D0007870470378022B11D00379124A03EBF6
S21400A7E043031B011A44136841798279CB40012A3E
S21400A7F003F0010304D012B983F00103037070471D
S21400A8004FF6E071B0F802C043EA4C0363F03F0332
S21400A8109BB28B4204D04FF6DF72934201D10022E6
S21400A82002704380704700BF14C003400378022BB9
S21400A83000D0704730B50446002501213A2083B089
S21400A840658000F08DF92B4601226179207901F0B0
S21400A85065FD23790F4A03EB43031B011A44136873
S21400A8606179A279CB40DB43022A03F0010323700F
S21400A87001D003B030BD00F02FF86079064900F033
S21400A88045F80123627920791146CDE9003301F0BD
S21400A890C3FCEEE714C00340F9A600000378022BC1
S21400A8A009D010B583790446022B82B004D0022367
S21400A8B0237002B010BD70470021407900F026F8E2
S21400A8C00023627920791146CDE9003301F0A4FC1B
S21400A8D00223237002B010BD08B5192001F06AF9F2
S21400A8E058B91A2001F066F900B908BD4FF0806229
S21400A8F0054BC3F880211A6008BD4FF00072024B6A
S21400A900C3F880211A60ECE700E100E038B50446A1
S21400A9100D4601F045F9034B43F82450BDE8384096
S21400A92001F044B9343400200F4B70B5D3F82444FA
S21400A930D3F820340D4A1C4004F0553424F050243B
S21400A940C2F820447CB10126094D94FAA4F0B0FA6E
S21400A95080F055F8203006FA00F224EA020403B12B
S21400A9609847002CF1D170BD00C0034000E00340C2
S21400A970343400200F4B70B5D3F82444D3F8203479
S21400A9800D4A1C4004F0AA3424F0A024C2F8204447
S21400A9907CB10126094D94FAA4F0B0FA80F055F87F
S21400A9A0203006FA00F224EA020403B19847002C8D
S21400A9B0F1D170BD00C0034000E0034034340020F5
S21400A9C0024A034B1168186822F0B6B84C0C0020F7
S21400A9D0480C0020704700BF30B5920083B0044694
S21400A9E00D4601922DF020FD431C0FD058B9294684
S21400A9F02046019A2AF084FB064B00280CBF002054
S21400AA00184603B030BD044803B030BD034803B059
S21400AA1030BD00BF10E000F024E000F021E000F0C0
S21400AA2010B582B0044601A802F000FB4FF4807116
S21400AA3001220020074B61809B689DF806C00A3300
S21400AA4003F01F0302FA03F3A4F800C0636002B029
S21400AA5010BD00BF0080E00F02F03ABA08B502F061
S21400AA6023FA002008BD00BF10B504462DF0ECFC0C
S21400AA70431C17D0A0B901200C4B9B680A3303F087
S21400AA801F03984080080AD0231F03EB800001E0D4
S21400AA90834209D053F8042F0132F9D0044810BD80
S21400AAA0044810BD044810BD002010BD0080E00F13
S21400AAB00EE000F024E000F021E000F040EA010C97
S21400AAC00B461CF0030110B506D00146920018464E
S21400AAD02AF026FB002010BD002AFBD0541E00F1F1
S21400AAE0040E734518BF0B2C19D91CF0070F16D18E
S21400AAF09E465408A0F1080C9CED027B0131A14251
S21400AB000CF1080CAEEC027BF6D122F00101D20764
S21400AB10E0D550F82120002043F8212010BD043B4A
S21400AB2000E0013C5EF8042C0EF1040E43F8042FFE
S21400AB30002CF6D1CEE700BF08B501F029F8014B8E
S21400AB40186008BD483B0020014B186801F024B887
S21400AB50483B00200A460139014403F007BC00BF09
S21400AB60430910B40CD0012B1AD00F4A022B0F4CFD
S21400AB7018BF144602F580520D4B18BF134603E06B
S21400AB804FF480544FF400530122002918BF234687
S21400AB9000F01F0002FA00F05DF8044B18607047E2
S21400ABA0044C054BF0E700BF609200406890004000
S21400ABB068A000406490004064A00040B0F5807F2C
S21400ABC008B500F2EF801F2840F2E7802038E02822
S21400ABD000F2E680DFE810F06F0161016F016101AD
S21400ABE02C012C012C012C01610161018F017701E0
S21400ABF01E019D017701610161016101E400E4002D
S21400AC00E400E400E400E4004D01B20161016101EA
S21400AC106101F70082016101E400E400E400E40061
S21400AC20E400E400E400E400E400E400E400E400FF
S21400AC30E4006F01E4006F016F016F012C01E40076
S21400AC40E400E400E400E400E400E400E400E400DF
S21400AC50E400E400E400E4006F016F01E400E400B7
S21400AC60E400E400E400E400E400E400E400E400BF
S21400AC70E400E400E400E400E400E400E400E400AF
S21400AC80E400E400E400E400E400E400E400E4009F
S21400AC90E400E400E400E4008B01E400E400E400E7
S21400ACA0E400E400E400E400E400E400E400E4007F
S21400ACB0E400E400E400E400E400E400E400E4006F
S21400ACC0E400E400E400E400E400E400E400E4005F
S21400ACD0E400E400E400E400E400E400E400E4004F
S21400ACE0E400E400E400E400E400E400E400E4003F
S21400ACF0E400E400E400E400E400E400E400E4002F
S21400AD00E400E400E400E400E400E400E400E4001E
S21400AD10E400E400E400E400E400E400E400E4000E
S21400AD20E400E400E400E400E400E400E400E400FE
S21400AD30E400E400E400E400E400E400E400E400EE
S21400AD40E400E400E400E400E400E400E400E400DE
S21400AD50E400E400E400E400E400E400E400E400CE
S21400AD60E400E400E400E400E400E400E400E400BE
S21400AD70E400E400E400E400E400E400E400E400AE
S21400AD80E400E400E400E400E400E400E400E4009E
S21400AD90E400E400E400E400CA01002800F08B8030
S21400ADA0002008BDB0F5906F00F0C8801AD9B0F545
S21400ADB0D06F00F0AE8027D9B0F5E06F00F08E803F
S21400ADC0B0F5F06FECD17D4BD3F8603103F00303A0
S21400ADD0022B26D0032B72D0012BE1D1BDE8084010
S21400ADE0FFF744BCB0F5407F6DD031D9B0F5607F39
S21400ADF01BD1FFF7BDFB714BD3F88030C3F30113B3
S21400AE000133B0FBF3F008BDB0F5B06F73D0B0F50A
S21400AE10C06F2BD1694BD3F8403103F00303022BEC
S21400AE20D8D1BDE80840FFF729BCB0F5806FB7D190
S21400AE30624BD3F8203103F00303022B00F0B180FD
S21400AE40032B62D0012BABD1BDE80840FFF78ABBCD
S21400AE50B0F5007F1ED1FFF78BFB584BD3F8903030
S21400AE60C3F304630133B0FBF3F008BDB0F5A06F85
S21400AE7096D1524AD2F8203203F00303012B00F099
S21400AE808980022B8CD1D2F8403103F00303022BC9
S21400AE90A0D1C6E7B0F5207F09D1FFF785FB474B69
S21400AEA01B6FC3F380230133B0FBF3F008BDB0F58E
S21400AEB0C07F7FF475AFBDE80840FFF775BBBDE8FF
S21400AEC00840FFF7D7BBFFF76FFB3C4B1B6FC3F386
S21400AED080230133B0FBF3F0400808BD374BD3F8AE
S21400AEE0403203F00303022B7FF474AF99E7BDE80A
S21400AEF00840FFF73DBB314AD2F8803103F0030328
S21400AF00012B47D0022B7FF44BAFBDE80840FFF77C
S21400AF10A9BB2A4BD3F8003203F00703013B032BEF
S21400AF203FF63EAF01A252F823F000BFDDAD0000B1
S21400AF3023AE0000BFAE0000ABAF00001F4BD3F83F
S21400AF40243103F00703013B052B3FF629AF01A28E
S21400AF5052F823F049AE0000A3AF00000BAF00008C
S21400AF60B3AF000049AE0000A3AF00004FF0E023EF
S21400AF70186910F004009ED1104BD3F8403103F04E
S21400AF800303022B3FF44DAF032B98D0012B3FF465
S21400AF9025AF08BDD2F8203103F00303022B7FF45F
S21400AFA04FAFBDE80840FFF729BBFFF7FDFA800A60
S21400AFB008BDBDE80840FFF753BB00BF0080004057
S21400AFC0F8B54FF40037441EFFF714FB41F6713511
S21400AFD0434E444AB766126F434BC2F3033202FB3A
S21400AFE00000DA69DD6341499B68884223F4401318
S21400AFF03D4988BF43F4801302F480328B600AB167
S21400B0000023CB634FF48030364A3549136F43F440
S21400B010806313670867136F23F4704343EA0433AF
S21400B0201367FFF7C1FA4FF04022D2F8844014F0BD
S21400B0301004FAD1D2F88430C3F38113C3F10203AB
S21400B040002B2DDD4FF4003541F671322448264B97
S21400B05024498566096FD969DA639A6822F4401232
S21400B0609A60CA031AD44FF4C070FFF7A7FD84464F
S21400B0701F491C4A8C4588BF4FF48064136F80209C
S21400B08023F4806323431367FFF798FD174B98421A
S21400B09003D84FF48032174B1A67F8BDDC63E2E73B
S21400B0A04FF4003741F671360D490E4B8F661B6F15
S21400B0B00D4AC3F3033303FB0003D169D6639268DA
S21400B0C00A4D22F44012AB42074B88BF42F480126E
S21400B0D001F480319A600029C5D00022DA63C2E705
S21400B0E0009000400080004000000340005A6202CA
S21400B0F080F0FA0200A00040B0F5207F21D005D8ED
S21400B100B0F5007F16D00BD901207047B0F5607FF0
S21400B110FAD10F4BD3F88000C0F30110013070470E
S21400B12010B1B0F5C07FEFD1094B186FC0F30330F4
S21400B13001307047064BD3F89000C0F3046001302E
S21400B1407047034B186FC0F380200130704700BF74
S21400B15000800040B0F5207F26D004D8B0F5007FF0
S21400B16017D00ED97047B0F5607F11D1134B013957
S21400B170D3F8800020F0300040EA0111C3F88010B8
S21400B180704710B1B0F5C07F17D10846FFF718BF5B
S21400B19070470A4B0139D3F8900020F0F85040EA87
S21400B1A00161C3F890107047044B0139186F20F402
S21400B1B0806040EA81211967704770470080004030
S21400B1C0B0F5807F08B500F096801AD9B0F5D06F3C
S21400B1D000F0AB8036D9B0F5006F70D058D9B0F516
S21400B1E0086F46D1894BD3F8003103F00303022BD6
S21400B1F05BD0032B00F0E280012B00F0D78001200B
S21400B20008BD522837D8232833D924382E2830D8DA
S21400B210DFE800F0626262622F2FAF2F248B2F2FA1
S21400B2202F2F2F2F2F2F2F2F9E2F2F2F2F44BD2F17
S21400B2302F2F2F2F2F2F2F2F2F2F2F2F2F2F2F2F19
S21400B2402F2F6200B0F5A06F00F0828031D9B0F5E4
S21400B250B06F00F08E80B0F5C06F0AD16B4BD3F89C
S21400B260403103F00303022B1FD0032B59D0012BD0
S21400B27053D0002008BD8028FBD1644B1B6F03F021
S21400B2800703013B032BF4D8DFE803F07F33929AE1
S21400B290B0F5E06F7BD0B0F5F06FEAD15B4BD3F83A
S21400B2A0603103F00303022BDFD1FFF7E7F9082034
S21400B2B008BDB0F5806F0FD0B0F5906FD9D1534B65
S21400B2C0D3F8243103F00703013B052BD1D8DFE880
S21400B2D003F00E6D5A757D814C4BD3F8203103F088
S21400B2E00303022B62D0032B4DD0012BC1D1FFF7F5
S21400B2F039F9052008BD4FF0E023186910F0040066
S21400B30058D1424BD3F8403103F00303022BCCD084
S21400B310032B06D0012B7FF473AFFFF7A7F90920A4
S21400B32008BDFFF7A7F90B2008BD384BD3F800324D
S21400B33003F00703013B032B9BD801A252F823F02E
S21400B3401BB30000ABB2000023B30000C5B300007F
S21400B3502E4AD2F8203203F00303012B20D0022B12
S21400B36087D1D2F8403103F00303022B7FF47DAF80
S21400B3709BE7264AD2F8803103F00303012B2DD039
S21400B380022B7FF476AFFFF76DF9022008BD1F4B46
S21400B390D3F8403203F00303022B7FF466AF84E752
S21400B3A0D2F8203103F00303022B9CD1FFF726F9D5
S21400B3B0032008BDFFF7F8F80C2008BDFFF750F98A
S21400B3C0072008BDFFF7F0F80E2008BDFFF7CAF803
S21400B3D0062008BDFFF712F9042008BDD2F8203178
S21400B3E003F00303022B0DD0032B07D0012B01D053
S21400B3F00F2008BDFFF7B6F80F2008BDFFF732F99B
S21400B4000F2008BDFFF7FAF80F2008BD00800040A7
S21400B410B0F5807FF8B50C4600F03E8156D9B0F501
S21400B420D06F00F0278132D9B0F5006F00F0BD80F4
S21400B43014D9B0F5086F10D1CC1EE4B2052C8CBF21
S21400B4400021AD4BAD4A98BF53F82410D2F8003116
S21400B45023F003030B43C2F80031F8BDB0F5E06FEC
S21400B46000F0E680B0F5F06FF7D1083CE4B2032CAC
S21400B4708CBF0021A24BA14A98BF53F82410D2F8E3
S21400B480603123F003030B43C2F86031F8BDB0F51A
S21400B490A06F00F0DF8040F28180B0F5B06F00F062
S21400B4A0B780B0F5C06FD8D1083CE4B2032C8CBF8F
S21400B4B00021944B914A98BF53F82410D2F840319B
S21400B4C023F003030B43C2F84031F8BD52287ED860
S21400B4D02328C2D924382E28BFD801A353F820F039
S21400B4E0EDB50000EDB50000EDB50000EDB50000CF
S21400B4F05BB400005BB4000011B600005BB4000053
S21400B500A9B4000075B600005BB400005BB4000090
S21400B5105BB400005BB400005BB400005BB40000EA
S21400B5205BB400005BB400005BB400005BB40000DA
S21400B53055B600005BB400005BB400005BB40000CE
S21400B5405BB400006BB4000031B600005BB40000D2
S21400B5505BB400005BB400005BB400005BB40000AA
S21400B5605BB400005BB400005BB400005BB400009A
S21400B5705BB400005BB400005BB400005BB400008A
S21400B5805BB400005BB400005BB400005BB400007A
S21400B5905BB400005BB40000EDB50000B0F5806F52
S21400B5A024D0B0F5906F7FF458AF023CE4B2052C7F
S21400B5B08CBF0021544B514A98BF53F82410D2F840
S21400B5C0243123F007030B43C2F82431F8BD80284A
S21400B5D07FF443AF8B1E052B00F23481DFE813F0B7
S21400B5E02F012201320135013201A200023CE4B2F1
S21400B5F0032C8CBF0021454B404A98BF53F82410BB
S21400B600D2F8203123F003030B43C2F82031F8BDF3
S21400B610022C04D0A4F10F04B4FA84F46409374A67
S21400B620D2F8803123F003031C43C2F88041F8BDF2
S21400B630083CE4B2032C8CBF0021354B2F4A98BF40
S21400B64053F82410D2F8403223F003030B43C2F819
S21400B6504032F8BD0F2C00F01181102C14BF0021D1
S21400B6600221264AD2F8203223F003030B43C2F805
S21400B6702032F8BD083CE4B2062C8CBF0021254BD6
S21400B6801E4A98BF53F82410D2F8003223F007035E
S21400B6900B43C2F80032F8BDA1F10804082C3FF6AF
S21400B6A0DCAE01A353F824F0CDB60000CDB6000002
S21400B6B05BB40000CDB6000051B800005BB40000DB
S21400B6C05BB400005BB40000CDB600004FF48031E0
S21400B6D0114B0A48114A406E5966136A43F001033B
S21400B6E01362C2034FF0E0225CBF0D4B596613692C
S21400B6F023F004031361F8BD009A030000800040A5
S21400B700BC990300BC990300CC990300AC990300D4
S21400B710BC990300E49903000090004000C0074075
S21400B72000A00040002604250121022000F018FC9D
S21400B730FEF760FF4FF4003141F67137614A624B05
S21400B74091661B6F6149C3F3033303FB0000604B34
S21400B7508842DA69DF639B685D4923F4401388BF3B
S21400B76043F4801302F480328B600AB10023CB636B
S21400B7704FF48031544A136F43F480631367514B80
S21400B7801967136F23F007032B431367FEF70CFFAD
S21400B7904FF04022D2F8845015F01005FAD1D2F8B6
S21400B7A08430C3F38113C3F10203002B68DD4FF42A
S21400B7B00031444B444A9966126F41F6713203F5E4
S21400B7C01C33D969DA639A68C90322F440129A6076
S21400B7D000D5DD630121002000F04AFB4FF4C07065
S21400B7E0FFF7ECF984463B49374A8C4588BF4FF44F
S21400B7F08065136F802023F480632B431367FFF765
S21400B800DDF9324B984203D84FF48032324B1A6738
S21400B810002E7FF422AE032C7FF41FAE01222F4BA6
S21400B8209A62F8BD4FF40026012226482C49466647
S21400B8308E6A2C4B03259A62C6F3400674E70026F0
S21400B840012571E7002635466EE7002602256BE7E0
S21400B8504FF480311B4B1C48234A406E5966136ACE
S21400B86023F0010313624FF0E022C3035CBF1A4BC0
S21400B8705966136943F004031361F8BD0121F0E62D
S21400B8804FF4003141F671370E4A0F4B91661B6F2D
S21400B89002F51C32C3F3033303FB0003D169D763FD
S21400B8A092680A4822F440128342094B88BF42F449
S21400B8B0801201F480319A6000298BD00022DA636E
S21400B8C088E700BF0090004000800040005A6202F7
